:1000000012C0B3C120C01FC01EC01DC01CC01BC079
:100010001AC09CC118C017C016C015C014C013C0A8
:1000200012C011C010C011241FBECFE5D4E0DEBF46
:10003000CDBF10E0A0E6B0E001C01D92A439B10729
:10004000E1F71FD266C2DCCF882369F092B382B396
:100050008870892782BB000091B381B3887089279B
:1000600081BB0000089592B382B38870892782BB58
:1000700000008B9A00000895882369F092B382B340
:100080008470892782BB000091B381B38470892773
:1000900081BB0000089592B382B38470892782BB2C
:1000A00000008A9A0000089581E0E6DF089504C008
:1000B00080918A00813011F08299FACF80E58A958B
:1000C000F1F780B3E8ECF0E03197F1F790E0969526
:1000D000879596958795817008951F93CF93DF93A9
:1000E00010E0C0E0D0E080918A00813069F0DFDF6D
:1000F00090E00C2E02C0880F991F0A94E2F7182B8B
:100100002196C830D10579F7812FDF91CF911F91CA
:10011000089580E38A95F1F781E0AEDF80E98A9562
:10012000F1F7089580E0A8DF80E98A95F1F781E092
:10013000A3DF0895982F04C080918A00813011F0C8
:100140008299FACF992311F0E4DF0895EBDF089547
:100150000F931F93082F18E080918A00813039F0A7
:10016000802F8170E7DF115011F00695F5CF1F91B8
:100170000F91089588EC90E00197F1F780E07CDF23
:1001800088EB91E00197F1F781E076DF0895CF9356
:10019000DF93CBE8D0E08991DBDF80E0C339D8077B
:1001A000D1F7DF91CF910895CF93DF93CBE8D0E0E3
:1001B00094DF9881891729F080918A008130E1F7D6
:1001C00005C0219680E0C339D80791F7DF91CF9120
:1001D0000895EF92FF920F931F93CF93DF93CBE895
:1001E000D0E0F88080918A00813029F138E0E32E58
:1001F00080918A008130D1F08F2D81709BDF8F2D0F
:1002000090E020E08C0101701070F0FE21E0822F60
:1002100091DF4DDF90E08017910721F080918A00F7
:100220008130E1F7EA9411F0F694E2CF219680E074
:10023000C339D807B1F6DF91CF911F910F91FF908D
:10024000EF9008951F9349DF182F47DFE12FF0E06B
:10025000EE59FF4F80831F3110F010E001C01F5F87
:1002600080918A00813089F71F9108951F9335DFAF
:10027000182FE12FF0E0EE59FF4F808169DF1F3129
:1002800010F010E001C01F5F80918A00813089F773
:100290001F9108951F9321DF182F1FDFE12FF0E03A
:1002A000EE57FF4F8083173010F010E001C01F5F42
:1002B00080918A00813089F71F9108950EDF88238D
:1002C00029F48091930001C081E042DF80918A008F
:1002D0008130D1F708951F9300DF182FE12FF0E050
:1002E000EE57FF4F808134DF173010F010E001C06F
:1002F0001F5F80918A00813089F71F9108958535AD
:1003000061F0863518F4833361F405C08C3C69F0E4
:10031000803F39F404C03BDF089546DF089559DF7C
:10032000089580918A008130E1F7089581B381BBFF
:1003300082B382BBA59AAD9A85B7816085BF80E400
:100340008BBF81E089BF7894AFDE08951F920F9232
:100350000FB60F9211248F938FEF809361008F91CE
:100360000F900FBE0F901F9018951F920F920FB60F
:100370000F9211248F93829B10C013BE8091610055
:100380008F3F19F082B780936100809161008F36B2
:1003900058F081E080938A0007C012BE81E080BFE0
:1003A00083E083BF109261008F910F900FBE0F907A
:1003B0001F90189592DE853AA9F4809193008C3FA6
:1003C00089F08CEF8093930083E990E068E070E01F
:1003D00041E050E088D082E890E069E070E048E0D9
:1003E00050E081D080918A008130E1F7089575DE78
:1003F000853A39F482E690E061E170E040E250E055
:1004000072D080918A008130E1F708958636E9F054
:10041000873638F4853599F08A35D9F08F30D9F49C
:100420000CC08A3A71F08B3A18F48939A1F40BC0E8
:10043000833C69F0803F79F404C004DF0895D7DF7E
:10044000089514DF089526DF089538DF089543DF07
:100450000895B0DF089580918A008130E1F7089512
:1004600080918A008130E1F785DE82E080938A0006
:1004700034DE45DF80918A00823011F42EDEC6DF43
:10048000089554DF8BE890E060E070E048E050E0D1
:100490001AD083E990E068E070E041E050E013D0CA
:1004A00082E890E069E070E048E050E00CD082E63D
:1004B00090E061E170E040E250E005D05BDE109238
:1004C0008A00CEDFFECFDC01CB01FC01E199FECF3B
:1004D00006C0FFBBEEBBE09A31960DB20D924150C3
:1004E0005040B8F70895DC01CB0102C02D9105D032
:1004F00041505040D8F70895262FE199FECF9FBB79
:100500008EBB2DBB0FB6F894E29AE19A0FBE01960E
:060510000895F894FFCFEE
:00000001FF
