:1000000095C057C360C3A2C0A1C0A0C09FC09EC07E
:1000100046C33BC39BC075C360C369C397C096C04A
:1000200095C094C093C0526561647900005EBCE2E3
:10003000613FDD83C29C7E20A3FD1F419DC3217FC4
:10004000FCA2401E5F01E3BD3E6082DC237D9FC1B8
:10005000421CFEA0E1BF5D0380DE3C62BEE0025CAC
:10006000DF81633D7C22C09E1D43A1FF4618FAA498
:1000700027799BC584DA3866E5BB5907DB85673984
:10008000BAE406581947A5FB7826C49A653BD98778
:10009000045AB8E6A7F91B45C6987A24F8A6441A6C
:1000A00099C7257B3A6486D85B05E7B98CD2306E58
:1000B000EDB3510F4E10F2AC2F7193CD114FADF344
:1000C000702ECC92D38D6F31B2EC0E50AFF1134D38
:1000D000CE90722C6D33D18F0C52B0EE326C8ED02C
:1000E000530DEFB1F0AE4C1291CF2D73CA94762818
:1000F000ABF517490856B4EA6937D58B5709EBB504
:1001000036688AD495CB2977F4AA4816E9B7550BF7
:1001100088D6346A2B7597C94A14F6A8742AC896EB
:10012000154BA9F7B6E80A54D7896B3511241FBEC1
:10013000CFE5D4E0DEBFCDBF11E0A0E6B0E001C066
:100140001D92A43AB107E1F7A5D4D3C459CF89E1F0
:1001500089B910BC1BB82CB181E090E002C0880FB7
:10016000991F2A95E2F788698AB986E880BD0895C3
:100170005D9BFECF109286018CB9089520E006C0E9
:100180005D9BFECF10928601ECB92F5FFC01E20F60
:10019000F11DE081EA3011F0EE2391F75D9BFECF77
:1001A000109286018AE08CB908955D9BFECF8DE0A8
:1001B0008CB95D9BFECF109286018AE08CB90895C0
:1001C000FC019091860105C05D9BFECF8CB93196F4
:1001D00090E084918823C1F790938601E6DF08952B
:1001E000909192009827ECE2F0E0E90FF11DE49184
:1001F000E09392008E2F0895882369F092B382B322
:100200008470892782BB000091B381B384708927F1
:1002100081BB0000089592B382B38470892782BBAA
:1002200000008A9A0000089581E0E6DF08951F9398
:10023000F8941092610081E0DFDF11E0812F8A9550
:10024000F1F780E0D9DF88EE93E00197F1F781E0E4
:10025000D3DF8AEB8A95F1F7829902C0109361008F
:1002600080EF9AE00197F1F7829903C082E08093D2
:100270006100809161001F91089580E0BDDF88E2F8
:100280008A95F1F781E0B8DF84E591E00197F1F715
:10029000089580E0B1DF80EA8A95F1F781E0ACDF74
:1002A0008CED90E00197F1F70895F894882311F010
:1002B000E4DF01C0EEDF789408950F931F93082FB9
:1002C000F89418E000FF02C0D8DF01C0E2DF11504F
:1002D00011F00695F7CF78941F910F910895F89437
:1002E00080E08ADF88E28A95F1F781E085DF88E1A6
:1002F0008A95F1F780B3E2E2F1E03197F1F790E00F
:100300009695879596958795817008951F93CF93BD
:10031000DF93F89410E0C0E0D0E0E1DF90E00C2E35
:1003200002C0880F991F0A94E2F7182B2196C83053
:10033000D10599F7812FDF91CF911F9108950F93E8
:100340001F93CF93DF938C0185E5B7DFC0E0D0E04A
:10035000F801EC0FFD1F8081B0DF2196C830D10578
:10036000B9F7DF91CF911F910F91089580916100AE
:10037000813051F488E4A1DF81E03EDF80E991E043
:100380000197F1F780E038DF0895809161008130B6
:1003900011F48EE492DF089580936A00EBE6F0E0BA
:1003A000119280E0E237F807D9F780E490E090936B
:1003B00065008093640010926700109266001092AE
:1003C000690010926800089580916600909167001E
:1003D000909365008093640010926700109266000D
:1003E000892B31F481E090E090936900809368005C
:1003F0000895AF92BF92CF92DF92EF92FF920F9348
:100400001F93CF93DF931092920080916800909198
:100410006900892B09F07BC00ADF882309F477C0C3
:1004200080EF4BDFC1E0D0E0AA24BB24CC24DD2444
:1004300001E055DF182FE82EFF2451DF90E021E086
:10044000E216F10429F48130910511F4F0DE4BC07D
:10045000E816F906E9F48091640090916500C817E8
:10046000D9073CF4F601E659FF4F1081102339F00B
:1004700004C010E0C817D90711F411E00BC0C9304F
:10048000D1050CF05EC0D0936700C093660059C0E0
:10049000113031F4F601E659FF4F8081802B07C0FF
:1004A000F601E659FF4F802F809590818923808344
:1004B000812FFBDE2196000F89F4F601E659FF4FEC
:1004C000E08180919200E827F0E0E45DFF4FE49145
:1004D000E09392000894C11CD11C01E088E0C8168A
:1004E000D1040CF4A6CFC134D1058CF080919200D8
:1004F000882369F4B0926500A0926400AB2819F5D6
:1005000081E090E090936900809368001CC0109295
:1005100065001092640010926900109268001092B9
:1005200067001092660020E030E0C901DF91CF91B2
:100530001F910F91FF90EF90DF90CF90BF90AF9001
:1005400008955E01ADCF80916A00882301F321E018
:1005500030E0EBCF1F93182F109262001DDF1CC0FC
:1005600080916A008117D9F490916200A1E7B0E010
:10057000E92FF0E033E0EE0FFF1F3A95E1F7E65682
:10058000FF4F8C9180831197319780E0A936B8078F
:10059000C1F79F5F909362002CDF892B09F7809150
:1005A000620090E01F91089524DF08951092650085
:1005B0001092640010926900109268001092670017
:1005C0001092660016DF0895CF93DF9310926200B9
:1005D000EDDFC1E0D0E03AC080916A00843051F094
:1005E0008A3141F0813031F0833221F08A3011F0CC
:1005F000803199F480916600909167009093650036
:10060000809364001092670010926600892BE9F4D1
:10061000D0936900C093680018C090916200A2E76F
:10062000B0E0E92FF0E043E0EE0FFF1F4A95E1F75D
:10063000E556FF4F8C9180831197319780E0A93662
:10064000B807C1F79F5F90936200D3DE892B21F634
:100650008091620090E0DF91CF91089581B381BBDA
:1006600082B382BBA59AAD9A72DDDEDD78940895DF
:10067000FC0108C080815D9BFECF109286018CB981
:10068000615031966623B1F708951F920F920FB60D
:100690000F9211240F900FBE0F901F9018951F926C
:1006A0000F920FB60F9211240F900FBE0F901F9054
:1006B00018951F920F920FB60F9211240F900FBE34
:1006C0000F901F9018951F920F920FB60F92112442
:1006D0000F900FBE0F901F9018951F920F920FB69C
:1006E0000F9211240F900FBE0F901F9018951F921C
:1006F0000F920FB60F9211240F900FBE0F901F9004
:1007000018951F920F920FB60F9211248F939F93FB
:10071000EF93FF939CB1809154018F5F80935401BC
:10072000823319F481E080935401E0915401F0E0A8
:10073000EC5AFE4F9083FF91EF919F918F910F9014
:100740000FBE0F901F9018951092620080EAE3E9A7
:10075000F0E0DF011D928A95E9F728DF0AC08D914C
:10076000819380E0A237B807D1F72F5F2093620012
:1007700040DE20916200892B61F0AAE6B0E0E22F12
:10078000F0E053E0EE0FFF1F5A95E1F7ED56FF4FF3
:10079000E6CF822F90E008950F931F93CF93DF93BE
:1007A000EC01062F142F60E070E0402F50E09AD14A
:1007B000112371F010E003C0A9DD89931F5F1017AA
:1007C000D9F708C00150A2DDFE01E00FF11D8083C2
:1007D0000023C1F780916100DF91CF911F910F91AC
:1007E00008951F93CF93DF9380915401E82FF0E099
:1007F000EC5AFE4F80818A3009F048C131978081E0
:100800008D3009F043C15D9BFECF1092860181E0DF
:100810008CB9CBDC809155018F3311F090E004C08E
:1008200086E290E0CDDC91E080915401823041F489
:10083000FEDC5D9BFECF109286018CB9B6DC91E0A8
:1008400080915501803F89F580915401833069F58D
:100850007BDF5D9BFECF109286018CB9A6DC809178
:100860006200882309F1C0E0D0E00DC020815D9BCB
:10087000FECF2CB90196319688309105B9F71092C8
:10088000860193DC21968091620090E0C817D90719
:100890005CF4FE0163E0EE0FFF1F6A95E1F7ED5691
:1008A000FF4F80E090E0E2CF91E0809155018333EB
:1008B000D1F4809154018330B1F483E3FEDC8AE605
:1008C00090E068E041E068DFEAE6F0E080815D9B6F
:1008D000FECF8CB9319680E0E237F807B9F7109275
:1008E000860163DC91E080915501843369F4809145
:1008F00054018B3049F4C5E5D1E08991DEDC81E01B
:10090000CE35D807D1F791E0809155018535C9F4EE
:10091000809154018B30A9F4E6E5F1E0AAE6B0E05D
:1009200081918D9381E0EF35F807D1F78AE690E069
:1009300006DD5D9BFECF1092860181E38CB935DC2C
:1009400091E080915501843B71F480915401833092
:1009500051F484EBB2DCC3DC5D9BFECF10928601C8
:100960008CB923DC91E0809155018E3BD1F48091CC
:1009700054018330B1F48EEBA0DC83E391E069E0B5
:1009800041E00ADFE3E3F1E080815D9BFECF8CB9BB
:10099000319681E0EC33F807B9F71092860105DC57
:1009A00091E080915501803F31F58091540185306F
:1009B00011F580EF82DC809156017FDC10915701A8
:1009C00082E790E0612F41E0E7DE20918601E2E7D7
:1009D000F0E0812F90E08E0F9F1F06C020815D9B6D
:1009E000FECF2CB9319620E0E817F907B9F720932C
:1009F0008601DBDB91E0809155018A3A31F58091E7
:100A00005401853011F58AEA58DC8091560155DC95
:100A10001091570182E790E0612F41E0BDDE209107
:100A20008601E2E7F0E0812F90E08E0F9F1F06C065
:100A300020815D9BFECF2CB9319620E0E817F907A5
:100A4000B9F720938601B1DB91E0809155018E3496
:100A500079F480915401863059F48EE42EDC809133
:100A600056012BDC8091570128DC8091580108C089
:100A7000992339F480915401833019F48091550100
:100A80001CDC10926000109254017894DF91CF9199
:100A90001F910895E3DDA5DEFECFCF93DF93EC0138
:100AA00080916100813049F48EEB07DC80E005DC49
:100AB000CE0160E241E070DE7894DF91CF9108953D
:100AC0000F931F930AE610E088E0F80111928A95CF
:100AD000E9F783E3F2DBC80168E040E05DDE1F91E7
:100AE0000F910895DC0101C06D9341505040E0F733
:060AF0000895F894FFCF09
:00000001FF
