:1000000012C0E9C020C01FC01EC01DC01CC01BC044
:100010001AC0D2C018C017C016C015C014C013C073
:1000200012C011C010C011241FBECFE5D4E0DEBF46
:10003000CDBF10E0A0E6B0E001C01D92A43EB10724
:10004000E1F706D10AC1DCCF83E389B910BC1BB844
:100050002CB181E090E002C0880F991F2A95E2F749
:1000600088698AB986E880BD08955D9BFECF1092AD
:10007000BD008CB9089520E006C05D9BFECF1092B4
:10008000BD00ECB92F5FFC01E20FF11DE081EA3009
:1000900011F0EE2391F75D9BFECF1092BD008AE038
:1000A0008CB90895FC0104C05D9BFECF8CB93196DC
:1000B00084918823C9F75D9BFECF8DE08CB95D9B51
:1000C000FECF1092BD008AE08CB90895FC0108C0F3
:1000D00080815D9BFECF1092BD008CB9615031963E
:1000E0006623B1F70895882369F092B382B38470D0
:1000F000892782BB000091B381B38470892781BBBB
:100100000000089592B382B38470892782BB0000F7
:100110008A9A0000089581E0E6DF089504C0809186
:100120008A00813011F08299FACF80E58A95F1F743
:1001300080B3E8ECF0E03197F1F790E09695879581
:1001400096958795817008951F93CF93DF9310E064
:10015000C0E0D0E080918A00813069F0DFDF90E07C
:100160000C2E02C0880F991F0A94E2F7182B2196D3
:10017000C830D10579F7812FDF91CF911F91089574
:100180005D9BFECF1092BD008CB908955D9BFECFA4
:100190001092BD008CB9089581B381BB82B382BB3C
:1001A000A59AAD9A85B7816085BF80E48BBF81E059
:1001B00089BF7894B0DF08951F920F920FB60F9207
:1001C00011248F938FEF809361008F910F900FBE5A
:1001D0000F901F9018951F920F920FB60F92112437
:1001E0008F93829B10C013BE809161008F3F19F0E6
:1001F00082B780936100809161008F3658F081E072
:1002000080938A0007C012BE81E080BF83E083BF75
:10021000109261008F910F900FBE0F901F90189554
:1002200080918A008130E1F782E080938A008CDF40
:100230005D9BFECF1092BD008CB980918A00823008
:1002400031F482DF5D9BFECF1092BD008CB9089522
:0E025000A3DF10928A00E4DFFECFF894FFCF08
:00000001FF
